S013000056616C76654472697665722E73726563A7
S11300000C9434000C943E000C943E000C943E007E
S11300100C943E000C943E000C943E000C943E0064
S11300200C943E000C943E000C943E000C943E0054
S11300300C943E000C943E000C943E000C943E0044
S11300400C943E000C943E000C943E000C943E0034
S11300500C943E000C943E000C943E000C943E0024
S11300600C943E000C943E0011241FBECFEFD8E048
S1130070DEBFCDBF0E9440000C9456000C940000DB
S1130080259A2FE788E391E0215080409040E1F7E2
S113009000C000002D982FE788E391E021508040B4
S11300A09040E1F700C000002D9AEBCFF894FFCF09
S9030000FC
